:040000000A160028B4
:100006007B15FB1F0D280130F300F201F101F00111
:08001600FA0DF20CFF300800A6
:0E001E00F201F101F001F801F30100300800D9
:08002C00FA1FF2130030080076
:10003400FB14FB1F2428FF30F300F200F100F00052
:08004400FA0DF20CFF30080078
:10004C007C185C28FC182D287C197B282628A001FC
:10005C007208031D4D287108F2007008F100780831
:10006C00F000F801A0157208031D4D287108F2006C
:10007C007008F100F001A01120167208031D4D2824
:10008C007108F200F101A015720803196F282008FD
:10009C00F302031D031C73280310F21B5C28F80DDC
:1000AC00F00DF10DF20DF30B532873287B1B701C14
:1000BC007728F81F7728F00A0319F10A0319F20AB6
:1000CC00031D7728F20CF10CF00CF30A03197B28B2
:1000DC0077280130FC000F207E280230FC00032022
:1000EC007E280430FC0016207E280830FC001A20E4
:0400FC0000000800F8
:10010000A0017208031D95287108F2007008F10023
:10011000F001A0157208031D95287108F200F10185
:10012000A011201672080319A3282008F302031D4A
:10013000031CA7280310F21BAB28F00DF10DF20DE4
:10014000F30B9B28A7280130FC000F20AE280230BB
:0E015000FC000320AE280430FC00162008003E
:10015E008312031372087606A000F801F9017308E2
:10016E007702031CD2287708FD007308F7007D087C
:10017E00F3007608FD007208F6007D08F20075089F
:10018E00FD007108F5007D08F1007408FD0070088F
:10019E00F4007D08F000770803194B297208FA0065
:1001AE00F217F61777087302F700031905290830BE
:1001BE007702031CFB28F7007408F9007508F40099
:1001CE007608F500F60108307702031CFB28F700CD
:1001DE007408F9007508F400F50108307702031C65
:1001EE00FB287A08F2004B2977080319052903101A
:1001FE00F60CF50CF40CF90CF70BFE28A01F1229C7
:10020E00F909F409F509F609F90A0319F40A0319AB
:10021E00F50A0319F60A7908F80774080318740F1B
:10022E00F00775080318750FF10776080318760F97
:10023E00F207A01B2B29031C3B29F20CF10CF00C2E
:10024E00F80CF30F3B29472903183F29F809F00949
:10025E00F109F209F80A0319F00A0319F10A031950
:10026E00F20A8030FA0643290130FC0026204D297F
:10027E000230FC0026204D290430FC0080204D2940
:10028E000830FC001A204D290030FC000000080048
:10029E007B14FB1F5A29F201FA1FFF30F200F10006
:0A02AE00F000FA0DF20CFF3008001A
:1002B800831203137008F8007108F0007208F10047
:1002C8007308F200F301FB01FC019E30F300FA0110
:1002D800F21F7A29F809F009F109F209F80A031955
:1002E800F00A0319F10A0319F20AFA170230FC009E
:0402F80026200800B4
:1002FC0083120313FB01FC01F80173080319F6299F
:10030C007208FA00F2179E30F302F31FE629F30984
:10031C00F30A08307302031CBB29F300F80D7008B4
:10032C00F8007108F0007208F100F2010830730255
:10033C00031CBB29F300F80D7008F8007108F000DD
:10034C00F10108307302031CBB29F300F80D70088F
:10035C00F800F00108307302031CBB29F300F80D00
:10036C00F8017308031D0310C52973080319C52967
:10037C000310F20CF10CF00CF80CF30BBE297B1BE8
:10038C00781CD329031CD329F80A0319F00A031982
:10039C00F10A0319F20AF21BF329FA1FF629F209E2
:1003AC00F109F009F809F80A0319F00A0319F10A1E
:1003BC000319F20AF629F201F101F001F801F6290C
:1003CC007B14FB1FF929F201FA1FF929F200F10045
:1003DC00F000F800FA0DF20CF9290130FC00FB29B1
:1003EC000030FC00FB29FF30FC00FC080319FF293E
:1003FC004F217208F3007108F2007008F1007808C0
:04040C00F0000800F4
:06041000FB15FF3008009F
:0C041600831203138030F606AF200800AC
:1004220083120313FB017308031D77080319682A5B
:1004320072087606FA007708F3077E30031C252A35
:10044200F30203186B2A282AF302031C6E2A72088D
:10045200F8007108FC007008FD00F817F617031089
:10046200F201F101F0011830A0007D1C422A74084B
:10047200F00775080318750FF10776080318760F51
:10048200F207F20CF10CF00CF80CFC0CFD0C031052
:10049200A00B362AF21B522AF80DF00DF10DF20DC7
:1004A200F3037B1B701C642AF81F642AF00A0319E9
:1004B200F10A0319F20A031D642AF20CF10CF00C82
:1004C200F30A03196B2AFA1FF2130030702A013063
:1004D2000F20702A02301A20702A043003200000F4
:0204E200080010
:0E04E4008312031356088A0055088200080090
:1004F20083120313FA017308031D7A147708031D8C
:10050200FA147A080319C52A033A0319902A7A18A9
:100512008D2AF61FC32AC12AF21FC12AC32A7208D2
:100522008039FA00F21376088039F6137A06031935
:100532009E2A7A080319C12AC32A7708730203196B
:10054200A52A031CB92ABD2A760872020319AC2A0D
:10055200031CB92ABD2A750871020319B32A031CA8
:10056200B92ABD2A740870020319C52A0318BD2AC4
:10057200FA080319C32AC12AFA080319C12AC32A8D
:1005820003140800031008000314031508000800F0
:1005920083120313FB0173080319062B7208FA0076
:1005A200F2178E30F302F31F092BF309F30A083016
:1005B2007302031CEC2AF300F10D7208F100F20140
:1005C20008307302031CEC2AF300F10DF1017308E9
:1005D200031D0310F42A73080319F42A0310F20C02
:1005E200F10CF30BEF2A7B1B711CFE2A031CFE2A63
:1005F200F10A0319F20AF21B152BFA1F182BF20942
:10060200F109F10A0319F20A182BF201F101182B70
:100612007B14FB1F1B2BF201FA1F1B2BFF30F20076
:10062200F100FA0DF20C1B2B0130FC001D2B0030E7
:10063200FC001D2BFF30FC00FC080319212B4F216D
:0A0642007108F0007208F1000800D2
:10064C008312031373087706031D392B7208760681
:10065C00031D392B71087506031D392B70087406A0
:0C066C0003190315080003110800080022
:10067800083083120313FC002330FD00FD0B422BCE
:06068800FC0B422B0800F0
:10068E00831203137008F8007108F000F101F201F3
:10069E00F301FB01FC019630F300FA01F01F5D2B14
:1006AE00F809F009F80A0319F00AFA177008F100B0
:0C06BE007808F000F801F201802008002C
:1006CA00B63083120313F4000330740784007E30BB
:1006DA000002F000F101031CF10383163A088400BA
:1006EA00700880007108840A80000330740784004F
:1006FA007E3080003608F0003708F1003808F20032
:06070A003908F3000800AD
:10071000B63083160313BC0003303C078400000886
:100720003A07F1003B080318013EF2007108BA00D5
:100730007208BB0080307206F00080307002031D2A
:10074000A32B003071020318AA2BF001F101F20172
:10075000F301E92B8030F00080303B067002031D6E
:10076000B32B3A08FF3C0318DB2BF401F501F6012B
:10077000F7013608F0003708F1003808F2003908B0
:10078000F3007922013003180030F00070080319DB
:10079000D22BFF30F000FF30F100FF30F200FF30CD
:1007A000F300E92BFF30F000FF30F1007F30F20062
:1007B000FF30F300E92B033083163C0784003A082E
:1007C00080003608F0003708F1003808F2003908D8
:0407D000F30008002A
:1007D400831603133908F000F101F201F301FF302D
:1007E400F0050030F1057008BE007108BF007F30CD
:1007F4007002F2000030031C013E7102F300720823
:10080400BE007308BF0080307306F00080307002B1
:10081400031D0E2C003072020318322CF401F50172
:10082400F601F7013608F0003708F1003808F20045
:100834003908F3007922013003180030F000700801
:1008440003192D2C0030F0000030F1008030F2004C
:100854007F30F3008B2CF001F101F201F3018B2CBA
:1008640083163F08003C031D392C3E08183C03182E
:10087400442C3608F0003708F1003808F200390833
:10088400F3008B2C3608F0003708F1003808F2002A
:100894003908F3007E215C2170088316BA007108C0
:1008A400BB007208BC007308BD007008F400710836
:1008B400F5007208F6007308F7003608F0003708F0
:1008C400F1003808F2003908F300792201300318E6
:1008D4000030F00070080319822C0030F40000305E
:1008E400F5000030F6007F30F70083163A08F00078
:1008F4003B08F1003C08F2003D08F3000B228B2C6E
:1009040083163A08F0003B08F1003C08F2003D0869
:04091400F3000800E4
:10091800103083120313FD00FD0B902C000008001B
:10092800831603133C08F0003D08F100F00DF10DAB
:100938007010F00DF10D70103A08F0073B0803181D
:10094800013EF10770088312D5007108D6007222A3
:100958008A110A128316BE008312D50A0319D60A11
:1009680072228A110A128316BF008312D50A03194C
:10097800D60A72228A110A128316C0008312D50A77
:100988000319D60A72228A110A128316C1003C087A
:100998003D0403191E2D3608F0003708F100380809
:1009A800F2003908F3003E08F4003F08F50040085B
:1009B800F6004108F700112201308316BC02031C1F
:1009C800BD033C08F4003D08F500F40DF50D741066
:1009D800F40DF50D74103A08F4073B080318013EAE
:1009E800F50774088312D5007508D60072228A119B
:1009F8000A12F400D50A0319D60A72228A110A12B9
:100A0800F500D50A0319D60A72228A110A12F600CD
:100A1800D50A0319D60A72228A110A12F700AF20E2
:100A280070088316BE007108BF007208C000730802
:100A3800C100CB2C3E08F0003F08F1004008F2004E
:060A48004108F300080064
:100A4E00831203137408003A031D422D7508003AF1
:100A5E00031D422D7608003A031D422D7708003AF9
:100A6E00031D422DFF30F000FF30F1007F30F20009
:100A7E00FF30F300DD2D8312031377080319D12DF8
:100A8E0073080319D42D720876068039FA00F2170E
:100A9E00F617A0017208F8007108FC007008FD003E
:100AAE007408FD027508031C750FFC027608031C02
:100ABE00760FF802F801FC01FD01031C6D2D0310E9
:100ACE00F20CF10CF00CF80C0130A0007708F302D8
:100ADE00031C772D7E302007F3070318D72D7C2DAE
:100AEE007E302007F307031CDA2D1830FA07FD0DB0
:100AFE00FC0DF80DF00DF10DF20DA00D7408F002C5
:100B0E007508031C750FF1027608031C760FF202AE
:100B1E00760DA004201C952D7D14A02D7408F007D1
:100B2E0075080318750FF10776080318760AF20791
:100B3E007D10FA031F307A05031D7E2D7B1B7D1C55
:100B4E00C72D0310F00DF10DF20DA00D7408F0027B
:100B5E007508031C750FF1027608031C760FF2025E
:100B6E00760D20040139FD070318FC0A0319F80A53
:100B7E00031DC72DF80CFC0CFD0CF30A0319D72D21
:100B8E00FA1FF8137808F2007C08F1007D08F000D7
:100B9E000030DC2D01300822DC2D02300F20DC2D40
:0E0BAE0004301A20DC2D08300320000008005F
:040BBC00000008002D
:100BC00083160313AC1BE72D83128612E92D8312C3
:100BD000861683162C1BEF2D83120612F12D83121D
:100BE00006168316AC1AF72D83128611F92D83127F
:100BF000861583162C1AFF2D83120611012E8312DF
:100C000006155718052E0614062E06108614DE2526
:100C100086108316AC190F2E83128612112E8312A2
:100C2000861683162C19172E83120612192E83127C
:100C300006168316AC181F2E83128611212E8312DE
:100C4000861583162C18272E83120611292E83123F
:100C5000061557182D2E06142E2E06108614DE2586
:0E0C60008610571C352E3C23362E8C2408009F
:100C6E00831603132C08F4002D08F5002E08F60049
:100C7E002F08F700F001F101F201F30179220130A2
:100C8E00031C0030F00070080319522EF001F10120
:100C9E00F201F301B62E83162C08B6002D08B7000C
:100CAE002E08B8002F08B900B030BA006523003006
:100CBE00F4000030F5000030F6008030F70011220D
:100CCE000030F4000030F5000030F6007F30F70001
:100CDE000B2270088316AC007108AD007208AE00CE
:100CEE007308AF000130B002031CB1037008B600E8
:100CFE007108B7007208B8007308B9007430BA00F2
:100D0E001130BB000830BC000030BD0094247008C8
:100D1E00B2007108B3007208B4007308B50032084F
:100D2E00AC003308AD003408AE003508AF00300813
:100D3E00F0003108F10047231830F4007230F5004E
:100D4E003130F6007E30F700112283163208F4009F
:100D5E003308F5003408F6003508F700AF20080018
:100D6E00710DF80DF90D7408F8027508031C750F56
:100D7E00F902F00DF10D0F30FC00710DF80DF90DAB
:100D8E007408701CD02EF8027508031C750FF9023A
:100D9E00D52EF80775080318750FF907F00DF10D2C
:100DAE00FC0BC42E7018E12E7408F8077508031892
:080DBE00750FF90700000800A1
:100DC600831203137408003A031DF22E7508003AC5
:100DD600031DF22EFF30F0007F30F1004B2F8312FF
:100DE6000313FD01F901F8017108700403190034B9
:100DF60071087506FA00FA1BFD09FB01F51F082F9D
:100E0600F409F509F40A0319F50AF11F0F2FF00981
:100E1600F109F00A0319F10A71087504FA00FA1BC0
:100E2600242FB7267B18372FFD1F0034F009F10950
:100E3600F00A0319F10AF809F909F80A0319F90A77
:100E46000034F51F332FF11B2F2F7108F90070089E
:100E5600F800F101F001172FF101F001F00A00345A
:100E6600F109F009FB0A142FF80A0319F90A7408A4
:100E76007802031D172F75087902031D172FF90134
:100E8600F801F00A0319F10AF11F172F0000FF34C9
:020E9600080052
:100E9800831203136E08F2007208F100F20A6F0859
:100EA800F000EF0A700884000008F0007108840060
:100EB800700880007108840000080319642F502FFF
:060EC8006E08F0000800B6
:100ECE0083120313FD01F801700803190034740630
:100EDE00FA00FA1BFD09FB01F41F772FF409F40A3F
:100EEE00F01F7B2FF009F00A70087404FA00FA1B49
:100EFE009F2F7408F802F00D700DF80D7408F807A6
:100F0E00F00D0630FC00700DF80D74087018F80224
:100F1E00701CF807F00DFC0B8A2F701CF8077B185D
:100F2E00AD2FFD1F0034F009F00AF809F80A00345D
:100F3E00F41FAA2FF01BA72F7008F800F001982FAE
:100F4E00F001F00A0034F009FB0A802FF80A740849
:100F5E007802031D982FF801F00AF01F982FFF3426
:020F6E00080079
:100F70008312031357106E088316AC00E025571434
:020F8000080067
:100F820083120313FB01FA01F9018030F800F10C1E
:100F9200F00C031CD52F7408F90775080318750F98
:100FA200FA070318FB0A0310F01FDD2F7408FA0773
:100FB20075080318750FFB07FB0CFA0CF90CF80CFB
:100FC200031CC82F7B08F3007A08F2007908F100AD
:060FD2007808F0000800A1
:100FD800803083120313F0007008083E8400FF304D
:040FE800800008007D
:1010000083120313F401F501F601F70183162C088E
:10101000F0002D08F1002E08F2002F08F3008A11CD
:1010200026238A150130031D0030F00070080319D3
:1010300022280030F0000030F1000030F2007F3054
:10104000F300442983162C08F4002D08F5002E081F
:10105000F6002F08F700FC30F000D430F1003230F9
:10106000F2008530F3008A1179228A1501300318C5
:101070000030F000700803194628FF30F000FF3000
:10108000F1007F30F200FF30F30044294F30F400CC
:10109000AC30F500AE30F6008530F70083162C0832
:1010A000F0002D08F1002E08F2002F08F3008A113D
:1010B00079228A15013003180030F00070080319F6
:1010C0006628F001F101F201F3014429F401F50170
:1010D000F601F70183162C08F0002D08F1002E0808
:1010E000F2002F08F3008A1179228A1501300318C3
:1010F0000030F00070088316B200700803198828C9
:101100000030AC060030AD068030AE060030AF06D1
:101110002C08F0002D08F1002E08F2002F08F30033
:101120003B30F400AA30F5003830F6007F30F7008D
:101130008A1111228A1570088316AC007108AD005F
:101140007208AE007308AF007008B6007108B700EF
:101150007208B8007308B9008A11EA238A158A1147
:10116000C9228A1570088316B0007108B1008A116F
:1011700047238A157008F4007108F5007208F6001C
:101180007308F70083162C08F0002D08F1002E08D4
:10119000F2002F08F3008A110B228A1570088316BB
:1011A000AC007108AD007208AE007308AF007008A3
:1011B000B6007108B7007208B8007308B9004C3067
:1011C000BA001130BB000930BC000030BD008A11EC
:1011D00094248A157008B6007108B7007208B80028
:1011E0007308B9003008BA003108BB008A1188239F
:1011F0008A158312031370088316AC007108AD00C2
:101200007208AE007308AF00320803193B29FF30A3
:10121000F400FF30F5007F30F600FF30F7002C08B7
:10122000F0002D08F1002E08F2002F08F3008A11BB
:1012300026238A150130031D0030F00070080319C1
:101240002629F001F101F201F301442983162C084B
:10125000F4002D08F5002E08F6002F08F7000030E6
:10126000F0000030F1000030F2007F30F3008A110E
:1012700027258A15442983162C08F0002D08F10033
:0A1280002E08F2002F08F30008000A
:10128A0083120313EE01F401F501F601F701831647
:10129A002408F0002508F1002608F2002708F300C8
:1012AA008A1126238A150130031D0030F0007008C8
:1012BA00031968290030F0000030F1000030F20014
:1012CA007F30F300312AF401F501F601F7018316A4
:1012DA002008F0002108F1002208F2002308F30098
:1012EA008A1126238A150130031D0030F000700888
:1012FA0003198429F001F101F201F301312AF40101
:10130A00F501F601F70183162008F0002108F10023
:10131A002208F2002308F3008A1179228A15013083
:10132A0003180030F00070080319D929831624081D
:10133A00F0002508F1002608F2002708F3008A11B8
:10134A007E218A1570088316A8007108A900720800
:10135A00AA007308AB008A115C218A158316240837
:10136A00F4002508F5002608F6002708F7008A1178
:10137A0026238A15013003190030F000700803197A
:10138A00CB29F001F101F201F301312A0130831670
:10139A0028058312EE0000308316A0060030A1064D
:1013AA008030A2060030A30683162008AC0021086C
:1013BA00AD002208AE002308AF008A1137268A152D
:1013CA0070088316A0007108A1007208A2007308B1
:1013DA00A3002408F4002508F5002608F6002708CB
:1013EA00F7008A1111228A1570088316A000710865
:1013FA00A1007208A2007308A3007008AC0071086B
:10140A00AD007208AE007308AF0000208312031308
:10141A0070088316A0007108A1007208A200730860
:10142A00A30083126E080319282A003083162006A7
:10143A00F00000302106F10080302206F200003070
:10144A002306F300312A83162008F0002108F10050
:0A145A002208F2002308F300080046
:1014640083120313E101E301E4011030E5000430C9
:1014740064020318672AF03088008030F000700896
:10148400083E84006509F000700880008A11DE259A
:101494008A158A11DE258A150F300805F0007008B8
:1014A400E20070080319612A6308E1006208031965
:1014B4005F2AE20CE213E10A582A0430E400E50D45
:1014C40065100430E307E40A392A6108F0000800D3
:1014D4000030831203136306031D722A0030620670
:1014E400031DE62AA52A3730F000582B3830F000C7
:1014F400582B3930F000582B2F30F000582B343053
:10150400F000582B3530F000582B3630F000582BB3
:101514002A30F000582B3130F000582B3230F000D4
:10152400582B3330F000582B2D30F000582B7130ED
:10153400F000582B3030F000582B3D30F000582B81
:101544002B30F000582B6108013A0319752A610801
:10155400023A0319782A6108033A03197B2A6108BD
:10156400043A03197E2A6108053A0319812A61089D
:10157400063A0319842A6108073A0319872A61087D
:10158400083A03198A2A6108093A03198D2A61085D
:101594000A3A0319902A61080B3A0319932A61083D
:1015A4000C3A0319962A61080D3A0319992A61081D
:1015B4000E3A03199C2A61080F3A03199F2A6108FD
:1015C400103A0319A22A572B172B3730F000582B47
:1015D4003830F000582B3930F000582B2530F0000B
:1015E400582B3430F000582B3530F000582B36305F
:1015F400F000582B7330F000582B3130F000582B8A
:101604003230F000582B3330F000582B6330F000A8
:10161400582B7130F000582B3030F000582B3D30EF
:10162400F000582B2130F000582B6108013A0319BF
:10163400E72A6108023A0319EA2A6108033A0319FE
:10164400ED2A6108043A0319F02A6108053A0319DE
:10165400F32A6108063A0319F62A6108073A0319BE
:10166400F92A6108083A0319FC2A6108093A03199E
:10167400FF2A61080A3A0319022B61080B3A03197D
:10168400052B61080C3A0319082B61080D3A03195C
:101694000B2B61080E3A03190E2B61080F3A03193C
:0E16A400112B6108103A0319142BF0010800F5
:1016B2006B2B803083120313E1007E2BC030E100DC
:1016C2007E2B9430E1007E2BD430E1007E2B8030E3
:1016D200E1007E2B831203136108013A03195A2B8E
:1016E2006108023A03195F2B6108033A0319622B5E
:1016F2006108043A0319652B682B6203F000610844
:10170200F0077008E100571470088316AC008A11C4
:10171200E0258A15571063088316AC008A11E0256C
:061722008A1557140800AF
:10172800DD2C8312031321082307F0002408031873
:10173800013E2207F1008A1147238A157008CF005D
:101748007108D0007208D1007308D200FF2C21085C
:101758002302F0002208031C013E2402F1008A1132
:1017680047238A157008CF007108D0007208D1008D
:101778007308D200FF2C2308F0002408F100210888
:10178800F4002208F5008A11C1278A158A11472317
:101798008A157008CF007108D0007208D10073084C
:1017A800D200FF2C2108F0002208F1008A114723FB
:1017B8008A157008E2007108E3007208E4007308F3
:1017C800E5002308F0002408F1008A1147238A1550
:1017D8006208F4006308F5006408F6006508F7007D
:1017E8008A1127258A157008CF007108D000720861
:1017F800D1007308D200FF2C2108F0002208F10064
:101808008A1147238A157008E6007108E7007208F4
:10181800E8007308E9002308F0002408F1008A11A1
:1018280047238A156608F4006708F5006808F6007B
:101838006908F7008A1127258A157008E2007108DF
:10184800E3007208E4007308E5002108F4002208A8
:10185800F5002308F0002408F1008A11E3268A1510
:101868008A1147238A157008F4007108F500720878
:10187800F6007308F7006208F0006308F1006408D6
:10188800F2006508F3008A110B228A156608F40035
:101898006708F5006808F6006908F7008A11112240
:1018A8008A157008CF007108D0007208D10073083B
:1018B800D200FF2C2308F0002408F1008A114723E6
:1018C8008A1570088316A0007108A1007208A2008A
:1018D8007308A3000030A4000030A5000030A60063
:1018E8007E30A7004521831203137008CF007108CA
:1018F800D0007208D1007308D200FF2C2308F00032
:101908002408F1008A1147238A1570088316A0005D
:101918007108A1007208A2007308A300AB30A400EC
:10192800AA30A5002A30A6007D30A70045218312E1
:1019380003137008CF007108D0007208D100730833
:10194800D200FF2C0030CF000030D0000030D10092
:101958007F30D2000230D3000030D400803024061B
:10196800F000803054067002031DBC2C530823027B
:10197800031CDC2C5308F0005408F1008A1147239B
:101988008A154F08F4005008F5005108F60052086F
:10199800F7008A1111228A157008CF007108D0004B
:1019A8007208D1007308D200D30A0319D40AB22CE2
:1019B800FF2C8312031361082B3A0319952B610836
:1019C8002D3A0319AB2B61082A3A0319BF2B61087A
:1019D8002F3A0319D62B6108253A0319002C610800
:1019E800733A03195E2C6108633A0319822C610863
:0819F800213A0319A62C080096
:101A000083120313EC01ED016108E8006208E900AC
:101A10006308EA006408EB006B08FF3A031D1A2D07
:101A20006A08FF3A031D1A2D6908FF3A031D1A2D93
:101A30006808FF3A031D262D6508EE003230EF00DE
:101A40008A114C278A150330F0000F2F0130E60071
:101A5000EA1F352D80306A06F0007008EA00E60AB9
:101A6000650884002D308000E50A0030F0006B0628
:101A7000031D442D70086A06031D442D7008690675
:101A8000031D442D6808003A031D4F2D6508EE0024
:101A90003A30EF008A114C278A15F0010F2F6B089E
:101AA000FF3A031D5D2D6A08003A031D5D2D69088C
:101AB000003A031D5D2D6808003A031D692D650875
:101AC000EE003630EF008A114C278A156608F000C8
:101AD0000F2F0030F4000030F5000030F6007F30AA
:101AE000F7006808F0006908F1006A08F2006B0866
:101AF000F3008A1179228A15013003180030F000B2
:101B000070080319A02D6808F0006908F1006A0840
:101B1000F2006B08F3000030F4000030F5002030D4
:101B2000F6008230F7008A1111228A157008E80049
:101B30007108E9007208EA007308EB00ED03692DF3
:101B40000030F4000030F5002030F6008230F7005D
:101B50006808F0006908F1006A08F2006B08F300F9
:101B60008A1179228A150130031C0030F0007008B8
:101B70000319D72D6808F0006908F1006A08F2001F
:101B80006B08F300CD30F400CC30F5004C30F6009B
:101B90007B30F7008A1111228A157008E80071085D
:101BA000E9007208EA007308EB00ED0AA02DFF308F
:101BB0006805F800FF306905F9007F306A05FA0012
:101BC00000306B05FB007808F4007908F5007A080E
:101BD000F6007B08F700F40DF50DF60DF70D741007
:101BE00000306805F00000306905F10000306A053A
:101BF000F200FF306B05F3007008E8007108E9009F
:101C00007208EA007308EB0074086804F0007508B5
:101C10006904F10076086A04F20077086B04F300A7
:101C20007008E8007108E9007208EA007308EB0028
:101C30007F306B02F0007008E7000130EB007008A5
:101C4000F4006808F0006908F1006A08F2006B0807
:101C5000F30074080319332EF00DF10DF20DF30D9E
:101C60007010FF3E2A2E7008E8007108E900720823
:101C7000EA007308EB006B08303EF0006508840052
:101C800070088000E50A80306D06F0008030013A6F
:101C90007002031C542E8030063AF00080306D062E
:101CA0007002031C542E5B2E650884002E308000C9
:101CB000E50A0130EC000630E7006708003A031936
:101CC000B92EEB016808F0006908F1006A08F2001B
:101CD0006B08F300F00DF10DF20DF30D7010F00D27
:101CE000F10DF20DF30D70106808F0076908031884
:101CF000690FF1076A0803186A0FF2076B080318E7
:101D00006B0FF3077008E8007108E9007208EA0039
:101D10007308EB006808F0006908F1006A08F20037
:101D20006B08F300F00DF10DF20DF30D701070085B
:101D3000E8007108E9007208EA007308EB006B081C
:101D4000303EF0006508840070088000E50A6C08E9
:101D5000003A031DB72EED036D08003A031DB72EA0
:101D6000650884002E308000E50A0130EC00E703AE
:101D70005D2EFF30650784000008303A031DC22E37
:101D8000E503B92EFF306507840000082E3A031DD5
:101D9000CA2EE5036D08003A03190B2F650884006D
:101DA00065308000E50A80306D06F0008030003A32
:101DB00070020318E32E650884002D308000E50AC8
:101DC0006D08003CED006D08E7008030093AF00036
:101DD00080306D0670020318FB2E0A30F40067088D
:101DE000F0008A1167278A153030F00765088400F3
:101DF00070088000E50A0A30F4006708F0008A11D4
:101E000067278A157808F0003030F00765088400ED
:101E100070088000E50A650884008001F001080070
:101E2000222F803083120313E100352FC030E100F0
:101E3000352F9430E100352FD430E100352F80303C
:101E4000E100352F831203136108013A0319112FA2
:101E50006108023A0319162F6108033A0319192F72
:101E60006108043A03191C2F1F2F6203F000610858
:101E7000F0077008E10070088316AC008A11E025B5
:101E80008A155710E40164086307840000080319E9
:101E9000532F6408630784000008EE008A11B827F6
:0A1EA0008A15E40A432F57140800C6
:101EAA00831603138610061006118611061286126F
:101EBA0083128610061086120612861106118A11DE
:101ECA003C238A158A113C238A158A113C238A15D8
:101EDA008615061586148A11DE258A1586108A113A
:101EEA003C238A1586148A11DE258A1586108A11E2
:101EFA003C238A1586148A11DE258A1586108A11D2
:101F0A003C238A15061186148A11DE258A15861045
:101F1A008A113C238A1586148A11DE258A158610B1
:101F2A008611861686148A11DE258A1586108A116C
:101F3A003C238A158612061586148A11DE258A150F
:101F4A008610061186148A11DE258A1586108A11D2
:101F5A003C238A1586148A11DE258A1586100615F1
:101F6A0086148A11DE258A1586108A113C238A1561
:101F7A00061186148A11DE258A158610861606161B
:101F8A008615061586148A11DE258A1586108A1189
:081F9A003C238A1557140800CE
:101FA2008A1172228A150A128000840AD50A03193C
:0A1FB200D60AF003031DD12F08002A
:101FBC00213084002E3083120313F0001E30D50024
:081FCC001130D600D1270800F6
:102000008A150A12DE278A110A160A12EC270A1606
:102010008A150A1255278A110A1601308316AC0058
:102020000A12E0250A1602308316AC000A12E025D7
:102030000A1600303106031D1F2800303006031D2C
:102040002D280130E1000130E2002530E3008A153F
:102050000A1210278A110A1638280130E1000130CF
:10206000E2003E30E3008A150A1210278A110A1690
:102070008A150A1232228A110A167008E100300805
:10208000E2003108E3008A150A126A228A110A1650
:102090007008D800700803195B280230E1003C0A80
:1020A000E2005808E3008A150A1259238A110A1619
:1020B000BC0A0319BD0A5808713A031D7E28B00AEC
:1020C0000319B10A0230F4000030F5003008F000C6
:1020D0003108F1000A12E3260A167808F0007908A0
:1020E000F1007008B0007108B100BC01BD01013001
:1020F0008316AC000A12E0250A160929303058026E
:10210000031CBE285808393C031CBE284E085F3A01
:10211000031DA4282308F0002408F1000A30F4006D
:102120000030F5000A12C1270A1630305802F200BA
:10213000F301031CF30372087007A300710803186E
:10214000013E7307A400BD282108F0002208F10019
:102150000A30F4000030F5000A12C1270A163030A8
:102160005802F200F301031CF30372087007A10088
:1021700071080318013E7307A200092958083D3A67
:10218000031D04294E08E1008A150A1294238A11BE
:102190000A164F08E1005008E2005108E300520817
:1021A000E4005930E5008A150A1200258A110A1642
:1021B0000230E1000730E2005930E3008A150A12CC
:1021C00010278A110A160B30FB002630FC005D3008
:1021D000FD00FD0BE928FC0BE928FB0BE9280000BA
:1021E000000001308316AC000A12E0250A16A30194
:1021F000A401A101A201CF01D001D101D201BC01F2
:10220000BD015F30CE000929580803190929580873
:10221000CE0002308316AC000A12E0250A16023006
:10222000FB008630FC009930FD00FD0B1529FC0BEE
:0A2230001529FB0B152919281C299C
:04223C000034003436
:042240000034003432
:102244002F342C34203478342C3420342D342C3452
:0622540020342B3400349D
:04225A000034003418
:08225E004E3461344E340034AB
:0822660049344E3446340034C3
:04226E0030340034D4
:042272000034003400
:1022760025342C34203473347134723474342C3451
:1022860063346234723474342C3420342134003490
:022296005F34B3
:102298000034003400347F341834723431347E34DE
:1022A800F034FD3475347C344734583463347A342C
:1022B800583495341D3478348234C4342E3475340B
:1022C800A834783421347234EF34933400346F34C2
:1022D800A034923427346B34463456341534683479
:1022E800FF34E6345B345D34C434FF347F347E34E9
:1022F8008034EF34FF347D349034E13429347D3434
:10230800EC348234F6347C348234AD342B347C346F
:102318000E343C34C3347B348734D13413347A34A8
:0823280041347834D3347734DA
:02400E00C22FBF
:00000001FF
