:100000000C9434000C943E000C943E000C943E0082
:100010000C943E000C943E000C943E000C943E0068
:100020000C943E000C943E000C943E000C943E0058
:100030000C943E000C943E000C943E000C943E0048
:100040000C943E000C943E000C943E000C943E0038
:100050000C943E000C943E000C943E000C943E0028
:100060000C943E000C943E0011241FBECFEFD8E04C
:10007000DEBFCDBF0E943D010C941D020C94000018
:10008000459887FD459A449886FD449A439885FD96
:10009000439A429884FD429A299A85E0982F9A952E
:1000A000F1F729988A95F1F708951F93182F28984A
:1000B00029980E944000812F8295807F0E944000F5
:1000C0001F9108951F93182F289A29980E94400085
:1000D000812F8295807F0E9440001F910895EF92AA
:1000E000FF920F931F93DF93CF9300D0CDB7DEB76E
:1000F0008C011A82198280E4E82E81E0F82E0FC06C
:10010000E981FA81E00FF11F80810E9462008981FC
:100110009A8101969A838983C7010197F1F7E98152
:10012000FA81E00FF11F8081882351F70F900F9023
:10013000CF91DF911F910F91FF90EF9008950F9352
:100140001F933D9A3C9A3B9A3A9A219A209A88EEBC
:1001500093E020E931E0F9013197F1F70197D9F700
:100160002898299880E30E94400080E49CE9019748
:10017000F1F780E30E94400000E213E0C80101971C
:10018000F1F780E30E944000C8010197F1F788E28F
:100190000E94400000E411E0C8010197F1F788E2F5
:1001A0000E945500C8010197F1F788E00E945500B0
:1001B000C8010197F1F781E00E94550080E89EE3B5
:1001C0000197F1F786E00E945500C8010197F1F709
:1001D0008CE00E945500C8010197F1F71F910F9123
:1001E00008958FE08AB91BB8089561E052E044E0B9
:1001F00098E020E43CE96BB94C9B02C087E30DC05A
:100200004D9B02C088E309C04E9B02C089E305C034
:100210004F9B02C08FE201C080E25BB94C9B02C0E1
:1002200084E30AC04D9B02C085E306C04E9B02C01A
:1002300086E302C04F998AE24BB94C9B02C081E32E
:100240000AC04D9B02C082E306C04E9B02C083E3FE
:1002500002C04F998DE29BB94D9B02C080E306C05E
:100260004E9B02C08DE302C04F998BE2F90131979A
:10027000F1F7803209F4BFCF08958F929F92AF9229
:10028000BF92DF92EF92FF920F931F93DF93CF9372
:10029000CDB7DEB72B970FB6F894DEBF0FBECDBF3C
:1002A0000E949F008FE08AB91BB8A0E2DA2EEE24EC
:1002B000FF2400E010E04E010894811C911CF0E442
:1002C000AF2EFCE9BF2E0E94F500982F9B870E945D
:1002D00062009B85892F80538A3050F5292F332760
:1002E00027FD309580E2D81699F4C701E3E0880F26
:1002F000991FEA95E1F7EE0CFF1C8E0D9F1D60ED36
:10030000E62E6FEFF62EE20EF31EE80EF91E6AC01F
:10031000C80153E0880F991F5A95E1F7000F111F8C
:10032000800F911F890100531040080F191F5AC0F8
:100330009D3311F0D92E56C0ABE2DA1679F0AD1527
:1003400024F0BAE2DB1639F411C0EDE2DE1651F00A
:10035000FFE2DF1699F020E030E015C098012E0D85
:100360003F1D11C09701201B310B0DC00E9D900148
:100370000F9D300D1E9D300D112405C0C701B80121
:100380000E94F6019B01E0E0F0E084010E0F1F1FC8
:10039000C9016AE070E00E94F601805DD8018C938B
:1003A0007F010894E11CF11CC9016AE070E00E9421
:1003B000F6019B011616170614F4F701E6CF780133
:1003C0008F01F70180810E94620001501040089463
:1003D000E108F108FFEF0F3F1F0799F7EE24FF2414
:1003E00000E010E0C5010197F1F76DCF97FB092EF2
:1003F00007260AD077FD04D00CD006D000201AF4CE
:10040000709561957F4F0895F6F7909581959F4F70
:100410000895AA1BBB1B51E107C0AA1FBB1FA6174B
:10042000B70710F0A61BB70B881F991F5A95A9F79D
:0E04300080959095BC01CD010895F894FFCF02
:00000001FF
