:100000000C9434000C9449000C9449000C94490061
:100010000C9449000C9449000C9449000C9449003C
:100020000C9449000C9449000C9449000C9449002C
:100030000C9449000C9449000C9449000C9449001C
:100040000C9449000C9449000C9449000C9449000C
:100050000C9449000C9449000C9449000C944900FC
:100060000C9449000C94490011241FBECFEFD8E036
:10007000DEBFCDBF12E0A0E0B1E0E6E6FDE002C0E9
:1000800005900D92AC31B107D9F70E949B010C94F9
:10009000B1060C940000459887FD459A449886FD6A
:1000A000449A439885FD439A429884FD429A299A3E
:1000B00085E0982F9A95F1F729988A95F1F7089598
:1000C0001F93182F289829980E944B00812F829502
:1000D000807F0E944B001F9108951F93182F289A2C
:1000E00029980E944B00812F8295807F0E944B00AF
:1000F0001F910895EF92FF920F931F93DF93CF9379
:1001000000D0CDB7DEB78C011A82198280E4E82EC8
:1001100081E0F82E0FC0E981FA81E00FF11F8081A4
:100120000E946D0089819A8101969A838983C70113
:100130000197F1F7E981FA81E00FF11F80818823AF
:1001400051F70F900F90CF91DF911F910F91FF907A
:10015000EF9008950F931F933D9A3C9A3B9A3A9AD9
:10016000219A209A88EE93E020E931E0F901319755
:10017000F1F70197D9F72898299880E30E944B005E
:1001800080E49CE90197F1F780E30E944B0000E2D4
:1001900013E0C8010197F1F780E30E944B00C8010A
:1001A0000197F1F788E20E944B0000E411E0C801DA
:1001B0000197F1F788E20E946000C8010197F1F70A
:1001C00088E00E946000C8010197F1F781E00E9479
:1001D000600080E89EE30197F1F786E00E946000EE
:1001E000C8010197F1F78CE00E946000C8010197F7
:1001F000F1F71F910F9108958FE08AB91BB8089508
:10020000892B09F04CC061E052E044E098E020E422
:100210003CE96BB94C9B02C087E30DC04D9B02C00B
:1002200088E309C04E9B02C089E305C04F9B02C012
:100230008FE201C080E25BB94C9B02C084E30AC03C
:100240004D9B02C085E306C04E9B02C086E302C000
:100250004F998AE24BB94C9B02C081E30AC04D9B87
:1002600002C082E306C04E9B02C083E302C04F99E6
:100270008DE29BB94C9B02C081E70AC04D9B02C036
:1002800080E306C04E9B02C08DE302C04F998BE213
:10029000F9013197F1F7803209F4BBCF089561E09D
:1002A00052E044E098E020E43CE96BB94C9B02C08A
:1002B00087E30DC04D9B02C088E309C04E9B02C07E
:1002C00089E305C04F9B02C085E201C080E25BB9B3
:1002D0004C9B02C084E30AC04D9B02C085E306C06C
:1002E0004E9B02C086E302C04F9983E74BB94C9BFB
:1002F00002C081E30AC04D9B02C082E306C04E9B50
:1003000002C083E302C04F9983E69BB94C9B02C0B5
:1003100081E70AC04D9B02C080E306C04E9B02C02D
:100320008DE302C04F9981E2F9013197F1F78032F4
:1003300009F4BBCF08956F927F928F929F92AF92F4
:10034000BF92DF92EF92FF920F931F93DF93CF93B1
:10035000CDB7DEB7C95ED3400FB6F894DEBF0FBE8F
:10036000CDBF0E94AA0088E20E9460008FE08AB997
:100370001BB8F0E2DF2EEE24FF2400E010E0AA24F8
:10038000BB243E010894611C711CE0E48E2EECE954
:100390009E2EE114F104B1F40115110599F4A11494
:1003A000B10431F482E00E94600080E091E005C079
:1003B00082E00E9460008BE091E00E947A0080E47D
:1003C0000E946000C5010E940001982FC751DC4FB8
:1003D0009883C95ED3400E946D00C751DC4F98815D
:1003E000C95ED340892F80538A3038F5292F3327AF
:1003F00027FD309540E2D41689F4C70173E0880FD9
:10040000991F7A95E1F7EE0CFF1CE80EF91E80EDBE
:100410009FEFE80EF91EE20EF31EA8C0C80153E0DC
:10042000880F991F5A95E1F7000F111F080F191F28
:1004300000531040020F131F99C0913741F4C501BA
:10044000019662E070E00E9408055C018FC09D3358
:1004500011F0D92E8BC09FE2D91681F19D1584F041
:10046000AAE2DA1619F1AD1524F0B1E2DB1671F447
:1004700010C0EBE2DE1691F0FDE2DF1639F412C097
:1004800043E6D41659F153E7D516F1F020E030E0F9
:100490003EC021E030E082E090E036C098012E0DB1
:1004A0003F1D35C09701201B310B31C00E9D9001BF
:1004B0000F9D300D1E9D300D112429C0C701B801BC
:1004C0000E9408059B0123C0B701882777FD80950E
:1004D000982F0E94BA020E94690609C0B7018827B6
:1004E00077FD8095982F0E94BA020E9471050E94A4
:1004F00018039B010CC0D901A89F9001A99F300D42
:10050000B89F300D11240196E816F906A4F7E0E033
:10051000F0E083010E0F1F1FC9016AE070E00E9426
:100520000805805DD8018C937F010894E11CF11CC3
:10053000C9016AE070E00E9408059B0116161706C3
:1005400014F4F701E6CF78018F01F70180810E9452
:100550006D00015010400894E108F108FFEF0F3FD3
:100560001F0799F7EE24FF2400E010E0C401019773
:10057000F1F70FCFA8E0B0E0E0ECF2E00C94380522
:100580009B01AC0183E08983DA01C9018827B7FDAB
:1005900083959927AA27BB27B82E21153105410538
:1005A000510519F482E089833AC08823A9F02030EC
:1005B00080E0380780E0480780E8580729F460E0C9
:1005C00070E080E09FEC30C0EE24FF248701E21A47
:1005D000F30A040B150B02C079018A018EE1C82EC3
:1005E000D12CDC82CB82ED82FE820F831887C8017A
:1005F000B7010E946C0301971816190684F4082E9F
:1006000004C0EE0CFF1C001F111F0A94D2F7ED82EC
:10061000FE820F831887C81AD90ADC82CB82BA827D
:10062000CE0101960E94BB032896E9E00C94540584
:10063000ACE0B0E0EEE1F3E00C943F0569837A832F
:100640008B839C83CE010196BE016B5F7F4F0E941E
:1006500090048D81823061F1823050F1843021F438
:100660008E81882351F12EC02F81388537FD20C01F
:100670006E812F3131051CF06623F9F023C08EE125
:1006800090E0821B930B29853A854B855C8504C0DD
:1006900056954795379527958A95D2F76623B1F0F9
:1006A00050954095309521953F4F4F4F5F4F0EC06D
:1006B00020E030E040E050E009C02FEF3FEF4FEF87
:1006C0005FE704C020E030E040E050E8B901CA0133
:1006D0002C96E2E00C945B05EF92FF920F931F9330
:1006E0007B018C0180E0E81680E0F80681E00807D5
:1006F00080E0180788F48FEFE816F1040105110572
:1007000031F028F088E090E0A0E0B0E017C080E091
:1007100090E0A0E0B0E012C080E0E81680E0F806CB
:1007200080E0080781E0180728F088E190E0A0E069
:10073000B0E004C080E190E0A0E0B0E020E230E072
:1007400040E050E0281B390B4A0B5B0B04C01695A8
:100750000795F794E7948A95D2F7F701E55EFE4F87
:100760008081281B310941095109C9011F910F914D
:10077000FF90EF900895DF92EF92FF920F931F93F7
:10078000FC01E480F58006811781D1808081823070
:1007900048F480E090E0A0E1B0E0E82AF92A0A2BD2
:1007A0001B2BA5C0843009F49FC0823021F4EE24B5
:1007B000FF24870105C0E114F1040105110519F4B6
:1007C000E0E0F0E096C0628173819FEF62387907C4
:1007D0000CF05BC022E83FEF261B370B2A313105B6
:1007E0002CF020E030E040E050E02AC0B801A70142
:1007F000022E04C076956795579547950A94D2F7CF
:1008000081E090E0A0E0B0E004C0880F991FAA1F2B
:10081000BB1F2A95D2F70197A109B1098E219F210B
:10082000A023B1230097A105B10521F081E090E05C
:10083000A0E0B0E09A01AB01282B392B4A2B5B2BAF
:10084000DA01C9018F779070A070B0708034910583
:10085000A105B10539F427FF09C0205C3F4F4F4F78
:100860005F4F04C0215C3F4F4F4F5F4FE0E0F0E02F
:100870002030A0E03A07A0E04A07A0E45A0710F0B1
:10088000E1E0F0E079018A0127C06038710564F584
:10089000FB01E158FF4FD801C7018F779070A0701E
:1008A000B07080349105A105B10539F4E7FE0DC0A3
:1008B00080E490E0A0E0B0E004C08FE390E0A0E02E
:1008C000B0E0E80EF91E0A1F1B1F17FF05C01695A2
:1008D0000795F794E794319687E016950795F79476
:1008E000E7948A95D1F705C0EE24FF248701EFEF46
:1008F000F0E06E2F679566276795902F9F77D794C6
:10090000DD24D7948E2F8695492F462B582F5D29AD
:10091000B701CA011F910F91FF90EF90DF900895EA
:10092000FC01DB01408151812281622F6F7770E0F1
:10093000221F2227221F9381892F880F822B282F85
:1009400030E0991F9927991F11969C9311972115B3
:100950003105A9F5411551056105710511F482E0D4
:1009600037C082E89FEF13969C938E9312979A015B
:10097000AB0167E0220F331F441F551F6A95D1F763
:1009800083E08C930DC0220F331F441F551F129616
:100990008D919C911397019713969C938E93129728
:1009A000203080E0380780E0480780E4580758F39B
:1009B00014962D933D934D935C93179708952F3F75
:1009C000310579F4411551056105710519F484E08B
:1009D0008C93089564FF03C081E08C9312C01C9235
:1009E00010C02F57304013963C932E93129783E0FC
:1009F0008C9387E0440F551F661F771F8A95D1F7A8
:100A0000706414964D935D936D937C93179708953E
:100A100097FB092E07260AD077FD04D00CD006D00C
:100A200000201AF4709561957F4F0895F6F7909520
:100A300081959F4F0895AA1BBB1B51E107C0AA1FB8
:100A4000BB1FA617B70710F0A61BB70B881F991F6F
:100A50005A95A9F780959095BC01CD0108952F92E4
:100A60003F924F925F926F927F928F929F92AF923E
:100A7000BF92CF92DF92EF92FF920F931F93CF938B
:100A8000DF93CDB7DEB7CA1BDB0B0FB6F894DEBF22
:100A90000FBECDBF09942A88398848885F846E8448
:100AA0007D848C849B84AA84B984C884DF80EE8092
:100AB000FD800C811B81AA81B981CE0FD11D0FB69B
:100AC000F894DEBF0FBECDBFED010895492FE5E5D7
:100AD00093959E9F912DE3E0E99F4019EE2708959D
:100AE000C4C0D9D0E8F39923D9F3DF93CF931F93F0
:100AF0000F93FF92EF92DF92CF92BF92AF929F92AD
:100B00008F929F5780F4919588232AF09395660FD2
:100B1000771F881FDAF7DADF4A951AF009F44E5F7B
:100B20009395919501C0D2DF91589F93FF27FF24A1
:100B30008F019F014F01DF01EF01660F771F881FB3
:100B4000AA1F4A95D2F798E0000F111F000F111F3E
:100B5000EE0FA801AA244E0F511DA11C6A01EA2C18
:100B6000440F551FAA1C4C0D5D1DAE1C4160A41BFB
:100B7000B50BCA0920F4A40FB51FCA1D07C0AF01E9
:100B8000440F551F040F151F0160E16043E0660F1D
:100B9000771F881FAA1FBB1FCC1F4A95C1F79A95C4
:100BA00099F690E1000F111F221F331F881C991C1A
:100BB0001094C1F7EE0FFF1FFF1C0024A00150018D
:100BC0006001EE24400F511FA21EB31EC81CD91C89
:100BD000E11C4E0F5F1FAF1CB11CC11CD11CE11CDE
:100BE000009441F0440F551FAA1CBB1CCC1CDD1CFB
:100BF000EE1CE8CFA41BB50BCA09DB096C097D0903
:100C00008E0940F4A40FB51FCA1DDB1D6C1D7D1D90
:100C10008E1D0AC00E0F1F1F2F1D311D811C911C20
:100C20000094C1F70160E16043E0AA0FBB1FCC1F35
:100C3000DD1F661F771F881F4A95B9F79A9509F03F
:100C4000B1CFBF018F2D9F91880F9695879597F90A
:100C50008F909F90AF90BF90CF90DF90EF90FF90DC
:100C60000F911F91CF91DF9108959F3F31F09150E7
:100C700020F4879577956795B795880F911D969580
:100C8000879597F9089557FD9058440F551F59F0CF
:100C90005F3F71F04795880F97FB991F61F09F3F69
:100CA00079F087950895121613061406551FF2CF92
:100CB0004695F1DF08C0161617061806991FF1CFE2
:100CC0008695710561050894089511F40EF43FC0EE
:100CD000CCCFE1DFD0F39923D9F3CEF39F57550B57
:100CE00087FF38D00024A0E640EA9001805856954E
:100CF000979528F4805C660F771F881F20F02617D1
:100D00003707480730F4621B730B840B2029312905
:100D10004A2BA69517940794202531254A2758F782
:100D2000660F771F881F20F026173707480730F413
:100D3000620B730B840B200D311D411DA09581F7B3
:100D4000B901842F9158880F9695879508959FEF44
:100D500080EC089591505040660F771F881FD2F79E
:060D60000895F894FFCF96
:100D66002F2C20782C202D2C202B00252C20737145
:100D760072742C636272742C20210000010202033B
:100D8600030303040404040404040405050505051B
:100D960005050505050505050505050606060606F8
:100DA60006060606060606060606060606060606DD
:100DB60006060606060606060606060707070707C8
:100DC60007070707070707070707070707070707AD
:100DD600070707070707070707070707070707079D
:100DE600070707070707070707070707070707078D
:100DF6000707070707070707070707080808080878
:100E0600080808080808080808080808080808085C
:100E1600080808080808080808080808080808084C
:100E2600080808080808080808080808080808083C
:100E3600080808080808080808080808080808082C
:100E4600080808080808080808080808080808081C
:100E5600080808080808080808080808080808080C
:100E660008080808080808080808080808080808FC
:0C0E760008080808080808080808080018
:00000001FF
