:02000000E628F0
:10000800FF00030E8301AF000A08AE008A017B08D7
:10001800A2007C08A1007D08A0008230FC00DD3031
:10002800FD00FD0B1528FC0B1528000000000B1C1B
:1000380031288813081788120B30FB002630FC0083
:100048005D30FD00FD0B2628FC0B2628FB0B26281F
:10005800000000000608A3000B102208FB0021087E
:10006800FC002008FD002E088A002F0E8300FF0EDA
:040078007F0E0900EE
:10007C00710DF80DF90D7408F8027508031C750F55
:10008C00F902F00DF10D0F30FC00710DF80DF90DAA
:10009C007408701C5728F8027508031C750FF902B8
:1000AC005C28F80775080318750FF907F00DF10DAA
:1000BC00FC0B4B28701868287408F807750803188F
:0800CC00750FF90700000800A0
:0E00D400831203132D088A002C0882000800F6
:1000E2006A208A110A128000840AAC0A0319AD0A36
:0800F200F003031D7128080052
:1000FA00831203137408003A031D8C287508003A0A
:10010A00031D8C28FF30F0007F30F100E5288312B0
:10011A000313FD01F901F801710870040319003491
:10012A0071087506FA00FA1BFD09FB01F51FA228E2
:10013A00F409F509F40A0319F50AF11FA928F009C7
:10014A00F109F00A0319F10A71087504FA00FA1B99
:10015A00BE283E207B18D128FD1F0034F009F10982
:10016A00F00A0319F10AF809F909F80A0319F90A50
:10017A000034F51FCD28F11BC9287108F900700851
:10018A00F800F101F001B128F101F001F00A0034A0
:10019A00F109F009FB0AAE28F80A0319F90A7408EA
:1001AA007802031DB12875087902031DB128F901E7
:1001BA00F801F00A0319F10AF11FB1280000FF340F
:0201CA0008002B
:1001CC0083120313A3018030A4004030A50020301B
:1001DC00A600C030A7006030A800A030A900E03015
:1001EC00AA00AB018813081388128316881308130E
:1001FC0088128113081283120608A3000B108B15AA
:10020C008B172B08243E8400000888000330FB0069
:10021C008A30FC005530FD00FD0B1229FC0B122915
:10022C00FB0B1229000000002B08013EF000F1012D
:10023C000318F10A0730F4000030F5007D2078082F
:0E024C00F0007908F1007008AB0007292C299A
:02400E00C22FBF
:00000001FF
