:020000003529A0
:10000800FF00030E8301B2000A08B1008A017008DC
:10001800A4007108A3007B08A2007C08A1007D0849
:10002800A0000408A5000B1C38280630B3000430D3
:10003800B4006430B500B601FC20700803193528F7
:100048008813081788120B30FB002630FC005D303F
:10005800FD00FD0B2D28FC0B2D28FB0B2D28000087
:1000680000000608A6000B102408F0002308F10081
:100078002208FB002108FC002008FD002508840058
:0E00880031088A00320E8300FF0E7F0E090041
:10009600A53083120313FD00FD0B4F28000000005E
:0200A600080050
:1000A800710DF80DF90D7408F8027508031C750F29
:1000B800F902F00DF10D0F30FC00710DF80DF90D7E
:1000C8007408701C6D28F8027508031C750FF90276
:1000D8007228F80775080318750FF907F00DF10D68
:1000E800FC0B612870187E287408F8077508031837
:0800F800750FF9070000080074
:0E0100008312031330088A002F0882000800C3
:10010E00831203137408003A031D96287508003AEB
:10011E00031D9628FF30F0007F30F100EF28831288
:10012E000313FD01F901F80171087004031900347D
:10013E0071087506FA00FA1BFD09FB01F51FAC28C4
:10014E00F409F509F40A0319F50AF11FB328F009A9
:10015E00F109F00A0319F10A71087504FA00FA1B85
:10016E00C82854207B18DB28FD1F0034F009F10944
:10017E00F00A0319F10AF809F909F80A0319F90A3C
:10018E000034F51FD728F11BD3287108F900700829
:10019E00F800F101F001BB28F101F001F00A003482
:1001AE00F109F009FB0AB828F80A0319F90A7408CC
:1001BE007802031DBB2875087902031DBB28F901BF
:1001CE00F801F00A0319F10AF11FBB280000FF34F1
:0201DE00080017
:1001E00080208A110A128000840AAF0A0319B00A1B
:0801F000F003031DF0280800D4
:1001F80083120313B8013408F1000130F0007108CC
:1002080003190A29F00D7010FF3E04297008B70081
:100218003308840070080005F10071080130031DDF
:100228000030F0003608F006031932293508003C82
:10023800031822294B204B20B5031A2933088400C0
:1002480037080005F10071080130031D0030F00087
:100258003608F00603193229FF30B8003808F000D4
:0202680008008C
:10026A0083120313A6018030A7004030A800203073
:10027A00A900C030AA006030AB00A030AC00E0306A
:10028A00AD00AE0188130813881283168813081369
:10029A0088128113081283120608A6000B108B1508
:1002AA008B172E08273E8400000888000330FB00C5
:1002BA008A30FC005530FD00FD0B6129FC0B6129D9
:1002CA00FB0B6129000000002E08013EF000F1013D
:1002DA000318F10A0730F4000030F5008720780887
:0E02EA00F0007908F1007008AE0056297B295B
:02400E00C22FBF
:00000001FF
